:100A1C004572726F7220210020202020202020207F
:090A2C00202020202020202000C1
:1009A300C2828FA07F017E001209B4D2827F027EB1
:0109B3000043
:1009B400D3EF9400EE940040147D6E7C00ED1D7026
:0D09C400011CED4C70F7EF1F70E61E80E384
:0109D1002203
:0B0A6400EF1FAC0670011E4C70F62264
:080A6F00C2801209A3C2822219
:050A4B00E5172430FF57
:080A5000D2801209A3C2822228
:100A3500AE07ED7005EE24808003EE24C0FF120A98
:060A45006FAF03020A502E
:1009D2008F22ED7006E52224808004E52224C0FFE8
:1009E200120A6F1202E7FF600C120A50740129F911
:0609F200E43AFA80EE2257
:1009F800C281C2827F38120A6F7F647E00120A6445
:100A08007F0C120A6F7F06120A6F7F01120A6F7F2E
:040A180080020A6FDF
:1005C9007522007523FF7590F07F147E001209B41F
:1005D900AF90AB077A007590FF7F147E001209B4C3
:1005E90075900F7F147E001209B4AF907E0075904C
:1005F900FFEB54F0FDED4FFFEE60030206BEEF1274
:100609000365063F77065E7B067E7D069E7E06476E
:10061900B70666BB0686BD06A6BE064FD7066EDBC5
:10062900068EDD06AEDE0657E70676EB0696ED0684
:10063900B6EE000006BE75220075230D807D752279
:100649000075230E807575220075230F806DE4F502
:1006590022F523806675220075230C805E752200C1
:100669007523098056752200752308804E7522006E
:10067900752307804675220075230B803E7522007D
:100689007523068036752200752305802E75220094
:10069900752304802675220075230A801E752200A1
:1006A9007523038016752200752302800E752200BA
:0F06B90075230180067522007523FFAE22AF2343
:0106C800220F
:1006C900E47B107A27F9F8AF0BAE0AAD09AC081232
:1006D900095FAC00AD01AE02AF03E47BE87A03F930
:1006E900F812095F8F17E47BE87A03F9F8AF0BAECC
:1006F9000AAD09AC0812095FAC00AD01AE02AF0347
:10070900E47B64FAF9F812095F8F16E47B64FAF95D
:10071900F8AF0BAE0AAD09AC0812095FAC00AD0128
:10072900AE02AF03E47B0AFAF9F812095F8F15E408
:100739007B0AFAF9F8AF0BAE0AAD09AC0812095FEA
:10074900AF038F147F80120A6FE47FE77E03FDFCFD
:10075900AB0BAA0AA909A808D312034F4003120A2E
:100769004BE47F63FEFDFCAB0BAA0AA909A808D3D9
:1007790012034F4008E5162430FF120A50E47F099E
:10078900FEFDFCAB0BAA0AA909A808D312034F4026
:1007990008E5152430FF120A50E5142430FF020A37
:0107A90050FF
:1007AA007F87120A6FE47B107A27F9F8AF0FAE0E33
:1007BA00AD0DAC0C12095FAC00AD01AE02AF03E4A3
:1007CA007BE87A03F9F812095F8F17E47BE87A036A
:1007DA00F9F8AF0FAE0EAD0DAC0C12095FAC00AD5F
:1007EA0001AE02AF03E47B64FAF9F812095F8F16CF
:1007FA00E47B64FAF9F8AF0FAE0EAD0DAC0C12093A
:10080A005FAC00AD01AE02AF03E47B0AFAF9F8125D
:10081A00095F8F15E47B0AFAF9F8AF0FAE0EAD0D3A
:10082A00AC0C12095FAF038F14E47FE77E03FDFC73
:10083A00AB0FAA0EA90DA80CD312034F4003120A3C
:10084A004BE47F63FEFDFCAB0FAA0EA90DA80CD3E7
:10085A0012034F4008E5162430FF120A50E47F09BC
:10086A00FEFDFCAB0FAA0EA90DA80CD312034F4034
:10087A0008E5152430FF120A50E5142430FF020A55
:01088A00501D
:100003008E228F237F007EE17DF57C05AB13AA1240
:10001300A911A810C312034F40030202C874FFFFC3
:10002300FEFDFCA81012034F50030202C87B007AA6
:10003300E179F57805AF13AE12AD11AC1012095F7B
:10004300AC00AD01AE02AF037B807A96799878005D
:1000530012095F8F1B7B807A9679987800AF13AE75
:1000630012AD11AC1012095FAC00AD01AE02AF03CB
:100073007B407A42790F780012095F8F1A7B407AAE
:1000830042790F7800AF13AE12AD11AC1012095FB5
:10009300AC00AD01AE02AF037BA07A867901780094
:1000A30012095F8F197BA07A8679017800AF13AEAE
:1000B30012AD11AC1012095FAC00AD01AE02AF037B
:1000C300E47B107A27F9F812095F8F18E47B107A22
:1000D30027F9F8AF13AE12AD11AC1012095FAC00E3
:1000E300AD01AE02AF03E47BE87A03F9F812095FCE
:1000F3008F17E47BE87A03F9F8AF13AE12AD11ACB6
:100103001012095FAC00AD01AE02AF03E47B64FAE9
:10011300F9F812095F8F16E47B64FAF9F8AF13AEAE
:1001230012AD11AC1012095FAC00AD01AE02AF030A
:10013300E47B0AFAF9F812095F8F15E47B0AFAF9EE
:10014300F8AF13AE12AD11AC1012095FAF038F14E9
:100153007FC6120A6FE52364044522707C7F7F7E8D
:10016300967D98FCAB13AA12A911A810D312034FC2
:100173004008E51B2430FF120A507F3F7E427D0F6B
:100183007C00AB13AA12A911A810D312034F400885
:10019300E51A2430FF120A507F9F7E867D017C0082
:1001A300AB13AA12A911A810D312034F4008E519E3
:1001B3002430FF120A50E5182430FF120A507F2E14
:1001C300120A50120A4BE5162430FF120A50E515A5
:1001D3002430FF120A500202C17FFF7EE07DF57CCE
:1001E30005AB13AA12A911A810D312034F4008E5B7
:1001F3001C2430FF120A507F7F7E967D987C00ABD3
:1002030013AA12A911A810D312034F4008E51B2407
:1002130030FF120A507F3F7E427D0F7C00AB13AA52
:1002230012A911A810D312034F4008E51A2430FF76
:10023300120A507F9F7E867D017C00AB13AA12A910
:1002430011A810D312034F4008E5192430FF120AF6
:1002530050E47F0F7E27FDFCAB13AA12A911A8104F
:10026300D312034F4008E5182430FF120A50E47FED
:10027300E77E03FDFCAB13AA12A911A810D3120346
:100283004F4003120A4BE47F63FEFDFCAB13AA123B
:10029300A911A810D312034F4008E5162430FF120A
:1002A3000A50E47F09FEFDFCAB13AA12A911A810A2
:1002B300D312034F4008E5152430FF120A50E5140A
:1002C3002430FF801B7FCB120A6F7F45120A507FB9
:1002D30072120A507F72120A507F6F120A507F7295
:0402E300120A502289
:10088B00EF24FE602914607714700302091F240300
:10089B00600302095EE50B250FF513E50A350EF52E
:1008AB0012E509350DF511E508350CF51022AF0FE2
:1008BB00AE0EAD0DAC0CAB0BAA0AA909A808C3125E
:1008CB00034F4019E50B950FF513E50A950EF5123D
:1008DB00E509950DF511E508950CF51022C3E50F0B
:1008EB00950BF513E50E950AF512E50D9509F51126
:1008FB00E50C9508F5107B2D7D017F05020A35AFC0
:10090B000FAE0EAD0DAC0CAB0BAA0AA909A80812C1
:10091B0003008037AF0FAE0EAD0DAC0CEC4D4E4F50
:10092B00700C7BFF7A0A791C7D01FF0209D2E47FF0
:10093B00107E27FDFCAB0BAA0AA909A8081203001D
:10094B00AB0FAA0EA90DA80C12095F8F138E128D77
:04095B00118C1022C9
:10045900751EFFE4F51F752005F521F50BF50AF565
:1004690009F508F50FF50EF50DF50CF513F512F56F
:1004790011F5101209F81206C91205C98F1EE51ED9
:10048900F460F6E51EC3940A4003020513E51FC391
:1004990094045034E47F0AFEFDFCAB0BAA0AA909B7
:1004A900A808120300A804A905AA06AB07E4FCFDE5
:1004B900FEEB251EF50BEE3AF50AED39F509EC3898
:1004C900F5087520051206C9051FE520C3940450D7
:1004D90034E47F0AFEFDFCAB0FAA0EA90DA80C128D
:1004E9000300A804A905AA06AB07E4FCFDFEEB2559
:1004F9001EF50FEE3AF50EED39F50DEC38F50C75E4
:100509001F051207AA05200205BEE51E24F5602075
:1005190014602A14603414604114605B240560037C
:100529000205BE751F05E4F5207521017B2B802589
:10053900751F05E4F5207521027B2D8018751F05AF
:10054900E4F5207521037B2A800B751F05E4F5204E
:100559007521047B2FFD7F058058751F05752005C2
:10056900AF2112088B7B3DE4FD7F0C120A35AF21C8
:100579007E00120003803EE4F51F752005F521F584
:100589000BF50AF509F508F50FF50EF50DF50CF55E
:1005990013F512F511F5107BFF7A0A7924FDFF1284
:1005A90009D27A0A79247D01E4FF1209D27B30E469
:1005B900FDFF120A357590F0E590B4F0F802048257
:03000000020A5899
:0C0A5800787FE4F6D8FD75812302045974
:1002E700BB010689828A83E0225002E722BBFE0215
:0902F700E32289828A83E4932248
:10030000E88FF0A4CC8BF0A42CFCE98EF0A42CFC9C
:100310008AF0EDA42CFCEA8EF0A4CDA8F08BF0A41A
:100320002DCC3825F0FDE98FF0A42CCD35F0FCEB79
:100330008EF0A4FEA9F0EB8FF0A4CFC5F02ECD393E
:0F034000FEE43CFCEAA42DCE35F0FDE43CFC22AB
:10095F00C2D5E830E70FB2D5E4C39BFBE49AFAE4C3
:10096F0099F9E498F8EC30E717B2D512099512030C
:10097F00C7E4C39BFBE49AFAE499F9E498F880037F
:10098F001203C730D50DE4C39FFFE49EFEE49DFD27
:04099F00E49CFC22B6
:10034F00EB9FF5F0EA9E42F0E99D42F0EC6480C825
:06035F0064809845F022C5
:10036500D083D082F8E4937012740193700DA3A327
:1003750093F8740193F5828883E47374029368603B
:06038500EFA3A3A380DF3B
:10038B0075F008758200EF2FFFEE33FECD33CDCC29
:10039B0033CCC58233C5829BED9AEC99E5829840AC
:1003AB000CF582EE9BFEED9AFDEC99FC0FD5F0D689
:1003BB00E4CEFBE4CDFAE4CCF9A88222B800C1B9B3
:1003CB000059BA002DEC8BF084CFCECDFCE5F0CBF1
:1003DB00F97818EF2FFFEE33FEED33FDEC33FCEB2A
:1003EB0033FB10D703994004EB99FB0FD8E5E4F9E5
:1003FB00FA227818EF2FFFEE33FEED33FDEC33FCD2
:10040B00C933C910D7059BE99A4007EC9BFCE99AC5
:10041B00F90FD8E0E4C9FAE4CCFB2275F010EF2F0A
:10042B00FFEE33FEED33FDCC33CCC833C810D7070A
:10043B009BEC9AE899400AED9BFDEC9AFCE899F845
:0E044B000FD5F0DAE4CDFBE4CCFAE4C8F922D8
:00000001FF
